:100000000C9484000C94AF000C94AF000C94AF00DF
:100010000C94AF000C94AF000C94AF000C94AF00A4
:100020000C94AF000C94460E0C94AF000C94AF00EF
:100030000C94AF000C94AF000C94AF000C94AF0084
:100040000C94AF000C94AF000C9410100C94AF0003
:100050000C94AF000C94AF000C94AF000C94AF0064
:100060000C94AF000C94AF000C94AF000C94AF0054
:100070000C94AF000C94AF000C94AF000C94AF0044
:100080000C94D6040C94AF000C94AF000000210037
:10009000240027002A0000002200250028002B0051
:1000A00000002000230026002900040403030303AA
:1000B0000303030402020202010101010101010123
:1000C00004020202020404030102010204081020D7
:1000D0004040102040800102040810204080800130
:1000E0000208042010800000000000000000000052
:1000F0000000000000000000000000000000000000
:10010000000304002E02980511241FBECFEFD0E497
:10011000DEBFCDBF11E0A0E0B1E0E4E1FCE200E031
:100120000BBF02C007900D92AC33B107D9F71BBECD
:1001300012E0ACE3B1E001C01D92A037B107E1F7D6
:1001400011E0C8E0D1E004C02297FE010E9404162D
:10015000C430D107C9F70E948B120C9408160C9476
:100160000000EF92FF920F93DF93CF93CDB7DEB7EE
:1001700060970FB6F894DEBF0FBECDBFA82F002347
:1001800009F461C07E010894E11CF11C88E0F701CC
:1001900011928A95E9F729833A834B835C836D83B7
:1001A0007E83AF83988780E2801BE82FFF27E7FDDF
:1001B000F0954D815E816F817885181684F01D86DB
:1001C0001E861F86188A882799278E1B9F0B04C0BE
:1001D00076956795579547958A95D2F728C0202F31
:1001E000332727FD3095DB01CA01022E04C0B695E6
:1001F000A795979587950A94D2F78D879E87AF87A5
:10020000B88B04C0440F551F661F771FEA95D2F7BD
:1002100089819A81AB81BC8104C0B695A7959795D9
:1002200087952A95D2F7482B592B6A2B7B2B498728
:100230005A876B877C8729853A854B855C856D85D8
:100240007E85AF8598898A2F60960FB6F894DEBFB9
:100250000FBECDBFCF91DF910F91FF90EF9008952A
:10026000EF92FF920F93DF93CF93CDB7DEB76097F6
:100270000FB6F894DEBF0FBECDBFA82F002309F440
:1002800061C07E010894E11CF11C88E0F701119225
:100290008A95E9F729833A834B835C836D837E8358
:1002A000AF83988780E2801BE82FFF27E7FDF0955A
:1002B00049815A816B817C81181684F019861A86CF
:1002C0001B861C86882799278E1B9F0B04C0440F12
:1002D000551F661F771F8A95D2F728C0202F332716
:1002E00027FD3095DB01CA01022E04C0880F991F3B
:1002F000AA1FBB1F0A94D2F789879A87AB87BC874E
:1003000004C07695679557954795EA95D2F78D8104
:100310009E81AF81B88504C0880F991FAA1FBB1F9B
:100320002A95D2F7482B592B6A2B7B2B4D875E875A
:100330006F87788B29853A854B855C856D857E85B1
:10034000AF8598898A2F60960FB6F894DEBF0FBEEE
:10035000CDBFCF91DF910F91FF90EF900895FB01FA
:10036000DC018D91019080190110D9F3990B08954A
:10037000FA01CF93FF93EF932230CCF02532BCF4F7
:10038000C22F2C2F332744275527FF93EF930E942A
:10039000E015EF91FF91605D6A330CF0695D619348
:1003A000B901CA01605070408040904051F71082FE
:1003B0008F919F91CF910C94DD01DC01FC01672F9F
:1003C00071917723E1F7329704C07C916D9370832C
:1003D0006291AE17BF07C8F30895EF92FF920F9393
:1003E0001F93FC01162FF42EE22E0083118280E071
:1003F00090E0A0E0B0E082839383A483B5838683FA
:100400009783A087B1878DEC9CECACECBDE3828731
:100410009387A487B58766877787408B518B228B1C
:10042000338B862F61E00E94AB118F2D61E00E941B
:10043000AB118E2D61E00E94AB11812F60E00E9414
:1004400028128F2D60E00E9428128E2D60E00E94FD
:1004500028121F910F91FF90EF9008950F9380E065
:1004600090E0A8ECB2EC80936B0190936C01A093A8
:100470006D01B0936E018CE391E06EE070E00E943C
:10048000B5068DE391E00E94210380E491E00E9493
:10049000210383E491E06BE170E047E150E028E163
:1004A00030E001E00E94ED0187E591E06CE170E051
:1004B00049E150E02AE130E00E94ED010F910895FA
:1004C0008CE391E00E940F0F8230910539F483E4B0
:1004D00091E040E050E068EC72E413C08830910590
:1004E00039F483E491E040E050E068EC72EC1BC02A
:1004F0008630910579F483E491E040E050E068ECC7
:1005000072EC0E94A50587E591E040E050E068ECC0
:1005100072E411C084309105B9F483E491E040E0C5
:1005200050E068EC72E40E94A50587E591E040E0A8
:1005300050E068EC72EC0E94A50566E970E080E08E
:1005400090E00E948C1008958730910541F480E47A
:1005500091E00E949603BC01665F7F4F0AC089301C
:10056000910551F480E491E00E949603BC016A5029
:10057000704080E491E01BC08330910541F48DE32D
:1005800091E00E949603BC016A5070400EC0019732
:10059000D9F483E10E945B12019761F48DE391E04D
:1005A0000E949603BC01665F7F4F8DE391E00E943D
:1005B000EB03089586E168EB71E028EC30E040E061
:1005C00050E00E949A12089583E491E040E050E0E8
:1005D00060E070E00E94A50587E591E040E050E012
:1005E00060E070E00E94A505089583E160E00E944C
:1005F000AB1186E161E00E94AB118DE391E060E117
:1006000070E00E94CF0480E491E061E170E00E941C
:10061000CF0487E591E060E00E94550686E168EB33
:1006200071E028EC30E040E050E00E949A1286E150
:1006300060E773E02CE231E040E050E00E949A1263
:100640000895FC0180916F018C3090F480838F5F5E
:1006500080936F01815090E0FC01EE0FFF1FE80FC7
:10066000F91FE059FE4F88EB9BE092838183089548
:100670008FEF80830895FC0120812C30B8F58181B3
:10068000992787FD909548E850E0481B590B440F87
:10069000551F440F551F6417750784F082819927F1
:1006A00087FD909548E552E0481B590B440F551FB4
:1006B000440F551F641775070CF4AB0142505040AE
:1006C000CA01AA2797FDA095BA2F880F991FAA1FC4
:1006D000BB1F4FB7F89430E0F901EE0FFF1FE20F98
:1006E000F31FE059FE4F928381834FBF0895FC01B1
:1006F00080818F3F19F420E030E016C090E0FC01CB
:10070000EE0FFF1FE80FF91FE059FE4F21813281E4
:1007100083E0220F331F8A95E1F7B4E036952795E1
:10072000BA95E1F72E5F3F4FC9010895AF92BF928E
:10073000CF92DF92EF92FF920F931F938C010E9452
:10074000770300D000D00196AA2797FDA095BA2F75
:10075000F8016181772767FD709528E830E0261B56
:10076000370B220F331F220F331F442737FD4095CD
:10077000542F6281772767FD7095E8E5EE2EE2E061
:10078000FE2EE61AF70AEE0CFF1CEE0CFF1C0027EB
:10079000F7FC0095102F64EBA62EB12CC12CD12CA8
:1007A000EDB7FEB7A182B282C382D482BC01CD0173
:1007B000AA24BB2465010E940F130F900F900F9085
:1007C0000F90CB011F910F91FF90EF90DF90CF9092
:1007D000BF90AF900895AF92BF92CF92DF92EF9209
:1007E000FF920F931F93CF93DF93EC019B0182E065
:1007F000603278070CF048C077FF03C020E030E09B
:1008000005C0653B710514F024EB30E000D000D04A
:10081000B901882777FD8095982F2981332727FDF7
:100820003095E8E8AE2EB12CA21AB30AAA0CBB1C74
:10083000AA0CBB1CCC24B7FCC094DC2CEA81FF279B
:10084000E7FDF09528E532E02E1B3F0B220F331F0A
:10085000220F331F442737FD4095542FEDB7FEB7C5
:10086000218332834383548320E030E040E050E032
:1008700004EBE02EF12C012D112D0E940F139B0192
:100880000F900F900F900F90CE01B9010E943B0383
:10089000DF91CF911F910F91FF90EF90DF90CF905C
:1008A000BF90AF900895CF92DF92EF92FF921F9387
:1008B000CF93DF93EC01162F7A01690188818C3088
:1008C00008F061C0862F61E00E94AB11888190E042
:1008D000FC01EE0FFF1FE80FF91FE059FE4F1F73D9
:1008E0008081807C812B808380E292E08E199F0939
:1008F00064E070E00E949E15698380E699E08C199F
:100900009D0964E070E00E949E156A83A8818A2F89
:100910006CE00E949215682F70E0AB01440F551FE8
:10092000460F571F440F551F440F551F20E030E05E
:10093000C901840F951FFC01EE0FFF1FE80FF91F7F
:10094000E059FE4F808186FD12C02F5F3F4F2C3053
:10095000310571F721C01092900082E080939100E0
:10096000109295001092940088BB809371008A2F9A
:1009700090E0FC01EE0FFF1FE80FF91FE059FE4F5A
:100980008081806480838881DF91CF911F91FF9067
:10099000EF90DF90CF900895672BE9F2E8CF40E227
:1009A00052E020E639E00E94530408951F920F920E
:1009B0000FB60F920BB60F9211242F933F934F93C4
:1009C0005F936F937F938F939F93AF93BF93EF93B7
:1009D000FF938091940187FF05C0109295001092BB
:1009E00094002BC020919401332727FD30958091EE
:1009F0006F0190E02817390704F580919401992739
:100A000087FD9095FC01EE0FFF1FE80FF91FE059DD
:100A1000FE4F808186FF11C080919401992787FD48
:100A20009095FC01EE0FFF1FE80FF91FE059FE4FF4
:100A300080818F7360E00E942812809194018F5F03
:100A40008093940120919401332727FD3095809164
:100A50006F0190E0281739070CF04EC08091940187
:100A60008C300CF049C02091940030919500809119
:100A70009401992787FD9095FC01EE0FFF1FE80F69
:100A8000F91FE059FE4F81819281280F391F309361
:100A900099002093980080919401992787FD909563
:100AA000FC01EE0FFF1FE80FF91FE059FE4F808198
:100AB00086FF2BC080919401992787FD9095FC01BA
:100AC000EE0FFF1FE80FF91FE059FE4F80818F7373
:100AD00061E00E94281219C080E49CE905C0809161
:100AE00094009091950004969093990080939800BB
:100AF0008FEF8093940109C08091940090919500AC
:100B0000049680549C4940F3EACFFF91EF91BF9146
:100B1000AF919F918F917F916F915F914F913F9195
:100B20002F910F900BBE0F900FBE0F901F90189536
:100B300080E090E0A8ECB2EC809395019093960150
:100B4000A0939701B09398010895AF92BF92CF926E
:100B5000DF92EF92FF920F931F93CF93DF93EC01FD
:100B6000D42EC52EB62EA72EE0909501F0909601BA
:100B70000091970110919801642F752F8B2D9A2D5C
:100B8000A80197010E94BD1387FD1DC06D2D7C2D0E
:100B90008B2D9A2D20E030E048EC52E40E940C1599
:100BA00018165CF40F2EF0E0EF2EF0E0FF2EF8ECBC
:100BB0000F2FF2E41F2FF02D06C08D2D9C2DAB2D95
:100BC000BA2D7C018D018A819B81AC81BD818E8390
:100BD0009F83A887B987EA82FB820C831D83888163
:100BE000882321F417FB109517F91095C801B70158
:100BF00020E030E048EC52E40E94C11320E030E0F5
:100C00004FE753E40E9410155B016C01EA84FB84FA
:100C10000C851D85A80197010E940C1518165CF41F
:100C2000888961E00E9428128A8960E00E94281267
:100C3000C601B50114C0A80197015058C601B501FD
:100C40000E94BD138823A4F4888960E00E942812C2
:100C50008A8961E00E942812C601B50190580E945D
:100C600029149B01AC018E85B9010E942D1111C080
:100C70008E8560E070E00E942D118E8560E00E94FC
:100C80002812888960E00E9428128A8960E00E9408
:100C900028121982DF91CF911F910F91FF90EF9051
:100CA000DF90CF90BF90AF900895FC016083818169
:100CB000882339F44281538164817581CF010E9478
:100CC000A5050895DF92EF92FF920F931F93CF93A4
:100CD000DF93EC01882777FD8095982F0E945C14A4
:100CE0007B018C0120E030E040E45FE30E941015BE
:100CF00020E030E048E452E40E94C1130E9429142D
:100D0000C617D70714F4DD241CC0DD24C801B701C1
:100D100020E030E040EA5FE30E94101520E030E080
:100D200048E452E40E94C11320E030E040E85FE371
:100D30000E9459130E9429146C177D0714F0DD24BA
:100D4000D3948D2D90E0DF91CF911F910F91FF9063
:100D5000EF90DF9008956C597F4F0E9462060895CE
:100D6000645670400E9462060895FC0110826093F0
:100D7000990110929B010895AF92BF92CF92DF929A
:100D8000EF92FF920F931F93CF93DF936B01DB01E1
:100D90001A96CD91DC911B978A819B8168E273E260
:100DA0000E94AB06892B09F480C0809166028430D2
:100DB00009F08CC08C819D816AEC78E00E94B006BD
:100DC000892B09F483C08E819F8160E372E00E94C9
:100DD000AB06892B09F47AC0F601118610868FEFD5
:100DE0009FEFAFEFBFEF84839583A683B78381E046
:100DF00090E09183808354C08C819D8164E971E18E
:100E00000E94B006892B09F450C02696EE24FF24D8
:100E1000870123E0A22EB12C8881998160E372E0E2
:100E20000E94AB06892B09F440C08A819B8160E453
:100E300076E00E94B006892B69F0EE0CFF1C001FC3
:100E4000111F81E090E0A0E0B0E0E82AF92A0A2B27
:100E50001B2B0CC08A819B8160E372E00E94B0066C
:100E6000892B19F1EE0CFF1C001F111F249691E431
:100E7000A916B10429F0A2E0B0E0AA0EBB1ECCCFA7
:100E800080E290E0F60191878087D6011496ED927A
:100E9000FD920D931C93179781E090E08D939C93A6
:100EA00021E030E040E050E004C020E030E040E0ED
:100EB00050E0B901CA01DF91CF911F910F91FF90CE
:100EC000EF90DF90CF90BF90AF9008958091660231
:100ED000843458F391CFAF92BF92CF92DF92EF92CA
:100EE000FF920F931F93CF93DF936B018091660264
:100EF0008A3108F480C0DB011A96CD91DC911B97F2
:100F000088819981845F914080F4FB01118610866D
:100F10008FEF9FEFAFEFBFEF84839583A683B783F7
:100F200089E090E09183808361C08A819B8160E643
:100F300079E00E94AB06892B09F45DC02696EE2469
:100F4000FF24870162E0A62EB12C30C02297888151
:100F50009981229668E572E00E94B006892B79F1AA
:100F60008881998160EB74E00E94AB06892B69F05F
:100F7000EE0CFF1C001F111F81E090E0A0E0B0E02C
:100F8000E82AF92A0A2B1B2B0CC08881998168E575
:100F900072E00E94AB06892B71F1EE0CFF1C001F62
:100FA000111FA2E0B0E0AA0EBB1E2496809166023B
:100FB00095012F5F3F4F90E0281739073CF2C5019C
:100FC000019795958795F601918780870C971CF47A
:100FD0001186108610C0D6011496ED92FD920D93E5
:100FE0001C93179782E090E08D939C9321E030E072
:100FF00040E050E004C020E030E040E050E0B901C3
:10100000CA01DF91CF911F910F91FF90EF90DF9078
:10101000CF90BF90AF900895AF92BF92CF92DF92E2
:10102000EF92FF920F931F93CF93DF936B01809109
:1010300066028A3108F489C0DB011A96CD91DC91F1
:101040001B97888199818052934080F4FB0111861F
:1010500010868FEF9FEFAFEFBFEF84839583A6835A
:10106000B78389E090E0918380836AC08A819B8105
:101070006CEA7DE00E94AB06892B09F466C08C8186
:101080009D816CEA7DE00E94AB06892B09F45DC06E
:101090002896EE24FF248701A3E0AA2EB12C30C0AD
:1010A000229788819981229666EB73E00E94B006B0
:1010B000892B79F18881998160E679E00E94AB06FD
:1010C000892B69F0EE0CFF1C001F111F81E090E0DE
:1010D000A0E0B0E0E82AF92A0A2B1B2B0CC088817B
:1010E00099816CEB72E00E94AB06892B71F1EE0CDA
:1010F000FF1C001F111FA2E0B0E0AA0EBB1E249629
:101100008091660295012F5F3F4F90E028173907C5
:101110003CF2C501019795958795F60191878087E7
:101120000C971CF41186108610C0D6011496ED920F
:10113000FD920D931C93179789E090E08D939C93FB
:1011400021E030E040E050E004C020E030E040E04A
:1011500050E0B901CA01DF91CF911F910F91FF902B
:10116000EF90DF90CF90BF90AF9008956F927F92F5
:101170008F929F92AF92BF92CF92DF92EF92FF92A7
:101180000F931F93CF93DF934B01809166028232BE
:1011900008F47AC0DB011A96CD91DC911B978A8105
:1011A0009B816EE571E00E94AB06892B09F46CC04F
:1011B00036E0A32EB12CAC0EBD1EEE24FF24870119
:1011C00022E0C22ED12C37C0E50122978881998177
:1011D0006EE977E00E94AB06892B69F0EE0CFF1CEC
:1011E000001F111F81E090E0A0E0B0E0E82AF92A9A
:1011F0000A2B1B2B0DC0888199816EEE72E00E9434
:10120000AB06892B09F440C0EE0CFF1C001F111F18
:10121000D5018D919C916EE571E00E94B006E4E0ED
:10122000F0E0AE0EBF1E892B11F463010FC022E067
:1012300030E0C20ED31E36010894611C711C8091EF
:10124000660290E0681679060CF4BECFC6010197DD
:1012500095958795D40119969C938E9318974097EE
:101260002CF419961C921E9218970EC0F401E48279
:10127000F582068317838AE090E09183808321E0E2
:1012800030E040E050E004C020E030E040E050E0DA
:10129000B901CA01DF91CF911F910F91FF90EF909B
:1012A000DF90CF90BF90AF909F908F907F906F9086
:1012B00008956F927F928F929F92AF92BF92CF923A
:1012C000DF92EF92FF920F931F93CF93DF93FB0177
:1012D0003A0159016801DA012D913C918485958587
:1012E0002817390724F071E0E72EF12C56C0C90108
:1012F000880F991F0284F385E02DE80FF91F808184
:101300009181982E892E20FD06C00CE91FEF51E037
:10131000E52EF12C04C004E610E0EE24FF24B80111
:101320006C0D7D1D892D982D0E946206892B19F068
:1013300021E030E020C0E601CC0FDD1FB8016C0FCA
:101340007D1F892D982D0E946206892B19F022E0BD
:1013500030E011C0CC0DDD1D0C0F1D1F892D982D07
:10136000B8010E946206892B21F4EE24EA94FE2C37
:1013700014C023E030E0F5018081918101969183D2
:101380008083821793074CF011821082D3018D91D4
:101390009C91119701968D939C93C701DF91CF91FA
:1013A0001F910F91FF90EF90DF90CF90BF90AF9083
:1013B0009F908F907F906F9008952F923F924F92C1
:1013C0005F926F927F928F929F92AF92BF92CF92D5
:1013D000DF92EF92FF920F931F93DF93CF9300D092
:1013E00000D000D0CDB7DEB71C015B018091660252
:1013F0008D3008F47EC081E090E09A8389831C825E
:101400001B82A3E08A2E912C8C0E9D1EC1013E01F1
:101410000894611C711CA301940109E713E00E9468
:101420005909892B09F065C0C101B501A3019401D7
:101430000E945909019709F05CC0C101B501A301DF
:1014400094010E945909892B09F053C04424552462
:10145000CC24DD247601C4018D829E832FC0C1017E
:10146000B501A3012D813E8109E713E00E945909CE
:101470004C01C101B501A3012D813E810E94590992
:1014800021E08216910479F4892B99F5CC0CDD1CAE
:10149000EE1CFF1C81E090E0A0E0B0E0C82AD92A51
:1014A000EA2AFB2A08C0892821F5019711F5CC0CFE
:1014B000DD1CEE1CFF1C0894411C511C809166022F
:1014C00090E029813A81281739074CF2D501199605
:1014D0005C924E921897F501C482D582E682F7821B
:1014E00083E090E09183808321E030E040E050E0B1
:1014F00004C020E030E040E050E0B901CA01269687
:101500000FB6F894DEBF0FBECDBFCF91DF911F9114
:101510000F91FF90EF90DF90CF90BF90AF909F9092
:101520008F907F906F905F904F903F902F90089595
:101530002F923F924F925F926F927F928F929F92E3
:10154000AF92BF92CF92DF92EF92FF920F931F93D1
:10155000DF93CF93CDB7DEB728970FB6F894DEBFF1
:101560000FBECDBF1C014B01DB011C968D919C91E0
:101570001D97181619060CF0C4C081E090E09A83FC
:1015800089831A960D911C911B97F8018281938192
:101590006AE67AE00E94AB06892B09F4B2C082E0C9
:1015A00090E09A838983D80114968D919C91159728
:1015B00069E773E00E94B006892B09F4A2C083E0BA
:1015C00090E09A8389831C821B8203E0A02EB12CB9
:1015D000AC0EBD1EC101B4013E010894611C711C1A
:1015E000A30195010CEB11E00E945909892B09F028
:1015F00088C0C101B401A30195010E945909019756
:1016000009F07FC0CC24DD24760144245524C50193
:10161000AD829E83C3016F82988756C0C101B40119
:101620004F8158852D813E810CEB11E00E945909B4
:101630003C01B3E04B16510461F4C101B4014F8188
:1016400058852D813E810E9459096816790609F056
:1016500058C0C101B4014F8158852D813E810CEBEA
:1016600011E00E9459095C01E3E04E16510459F45F
:10167000C101B4014F8158852D813E810E945909D5
:10168000A816B906F1F56114710489F4F1E0AF16FA
:10169000B104B9F5CC0CDD1CEE1CFF1C81E090E020
:1016A000A0E0B0E0C82AD92AEA2AFB2A0AC091E0C1
:1016B0006916710431F5AB2821F5CC0CDD1CEE1C4C
:1016C000FF1C0894411C511C29813A81D4011C96AD
:1016D0008D919C911D97281739070CF49FCF19966F
:1016E0005C924E921897F401C482D582E682F7820A
:1016F00084E090E09183808321E030E040E050E09E
:1017000004C020E030E040E050E0B901CA01289672
:101710000FB6F894DEBF0FBECDBFCF91DF911F9102
:101720000F91FF90EF90DF90CF90BF90AF909F9080
:101730008F907F906F905F904F903F902F90089583
:101740006F927F928F929F92AF92BF92CF92DF92D1
:10175000EF92FF920F931F93CF93DF937B01FB01D7
:10176000C285D3858A819B816EEA7DE00E94AB06AB
:10177000892B09F474C08C819D8166ED76E00E940E
:10178000AB06892B09F46BC0269600E010E0DD243F
:10179000CC24992488247724662483E0A82EB12CB5
:1017A0008881998166EF71E00E94AB06892B09F46C
:1017B00056C08A819B816CED74E00E94B006892B33
:1017C00069F098014D2D5C2D692D782D872D962D72
:1017D00001E00E943001022F016013C08A819B81C9
:1017E00060E971E00E94B006892BC9F198014D2D86
:1017F0005C2D692D782D872D962D01E00E943001FA
:10180000022F132FD42EC52E962E872E782E692EBA
:101810002496F1E6AF16B10429F082E090E0A80E1C
:10182000B91EBECFC801F701048395834683578351
:101830009801872D962D00E20E94B100C901F701A1
:101840002283938387E090E09183808380E390E01C
:101850009187808721E030E040E050E004C020E044
:1018600030E040E050E0B901CA01DF91CF911F9113
:101870000F91FF90EF90DF90CF90BF90AF909F902F
:101880008F907F906F9008958F929F92AF92BF92AA
:10189000CF92DF92EF92FF920F931F93CF93DF933C
:1018A0006B0180916602823209F0B2C0DB011A96A8
:1018B000CD91DC911B978A819B8168E572E00E9443
:1018C000AB06892B09F4A4C08091660221E030E0C8
:1018D000281B3109220F331FC21BD30B888199812A
:1018E00068E572E00E94AB06892B09F491C0F6010D
:1018F000118610868FEF9FEFAFEFBFEF8483958344
:10190000A683B78388E090E09183808369C080914B
:101910006602813208F469C0D50114968D919C91BC
:10192000159760EA7FE00E94B006892B09F45DC03C
:10193000E5012696EE24FF24870133E0832E912CC7
:101940008881998168E572E00E94AB06892B09F4D1
:101950004CC08A819B8160E476E00E94B006892BAE
:1019600069F0EE0CFF1C001F111F81E090E0A0E069
:10197000B0E0E82AF92A0A2B1B2B0CC08A819B8134
:1019800066E272E00E94B006892B79F1EE0CFF1C32
:10199000001F111FA2E0B0E08A0E9B1E2496B3E246
:1019A0008B16910469F6E6E4F0E0AE0EBF1ED50199
:1019B0008D919C9168E572E00E94AB06892BA9F09D
:1019C00080E190E0F60191878087D6011496ED9230
:1019D000FD920D931C93179788E090E08D939C9354
:1019E00021E030E040E050E004C020E030E040E0A2
:1019F00050E0B901CA01DF91CF911F910F91FF9083
:101A0000EF90DF90CF90BF90AF909F908F90089510
:101A1000F601A284B384D50112968D919C911397FF
:101A200060E47FE10E94AB06892B09F070CFDDCF27
:101A30002F923F924F925F926F927F928F929F92DE
:101A4000AF92BF92CF92DF92EF92FF920F931F93CC
:101A5000DF93CF9300D0CDB7DEB71B01FB018485A8
:101A60009585863091052CF420E030E040E050E090
:101A700081C0F5ECAF2EFDE9BF2EFCE1CF2EF1E8E1
:101A8000DF2EE6E04E2E512C9C01220F331F3A83AD
:101A9000298359C0F101A285B385F2013497EA0F79
:101AA000FB1FE080F180A40DB51D6D917C9180E05D
:101AB00090E00E945A143B014C0100E010E0C80184
:101AC000B7010E945A147B018C012DEC3CEC4CE4D4
:101AD0005FE30E9410159B01AC01C401B3010E9499
:101AE000BD1388231CF400E010E018C0C401B3014A
:101AF0002DEC3CEC4CE45FE30E9410159B01AC0123
:101B0000C801B7010E94BD13082F112707FD1095CA
:101B10000027110F001F11270F5F1F4FC601B501CE
:101B200023E931E040E051E00E9473155801CC24D4
:101B3000B7FCC094DC2CA626B726C826D92622E0FE
:101B400030E0420E531E89819A814816590609F0E9
:101B5000A1CFF101A482B582C682D78280E290E053
:101B6000918780878FEF9FEF9183808321E030E022
:101B700040E050E0B901CA010F900F90CF91DF9182
:101B80001F910F91FF90EF90DF90CF90BF90AF909B
:101B90009F908F907F906F905F904F903F902F908D
:101BA00008950F931F93CF93DF938C01EB018EE980
:101BB00091E09B878A87809166028C871D86809141
:101BC0009A01853009F057C0C8010E94BC06611512
:101BD00071058105910509F051C0C801BE010E943F
:101BE0006B07611571058105910509F047C0C801B2
:101BF000BE010E940C086115710581059105F1F582
:101C0000C801BE010E94B6086115710581059105E4
:101C1000A9F5C801BE010E94DD09611571058105A4
:101C2000910561F5C801BE010E94980A6115710510
:101C30008105910519F5C801BE010E94A00B61152F
:101C4000710581059105D1F4C801BE010E94440CC3
:101C5000611571058105910589F4C801BE010E94D5
:101C6000180D611571058105910541F482E080939D
:101C70009A011092660220E030E002C021E030E0DC
:101C8000C901DF91CF911F910F9108951F920F927B
:101C90000FB60F920BB60F9211242F933F934F93D1
:101CA0005F936F937F938F939F93AF93BF93EF93C4
:101CB000FF93809199010E945B12482F80919C01B3
:101CC00090919D01019690939D0180939C0180913C
:101CD0006602843618F085E080939A0180919A011B
:101CE0008330D1F0843020F4823009F059C006C02E
:101CF000843071F1853009F053C04CC0442309F0A1
:101D00004FC080919C0190919D018436910508F40B
:101D100043C0109266021EC0413009F041C080915C
:101D20006602E82FF0E020919C0130919D01EE0FBA
:101D3000FF1FE756FE4F368325838F5F8093660231
:101D400010929D0110929C0184E080939A0128C01A
:101D50004423B9F480916602E82FF0E020919C01C1
:101D600030919D01EE0FFF1FE756FE4F368325830E
:101D70008F5F8093660210929D0110929C0183E018
:101D8000E4CF80919C0190919D018536910540F0B2
:101D900085E0DBCF442321F410929D0110929C0139
:101DA00080919B01882329F0442311F42D9A01C0CE
:101DB0002D98FF91EF91BF91AF919F918F917F915E
:101DC0006F915F914F913F912F910F900BBE0F90AC
:101DD0000FBE0F901F9018950F931F938C01F894CE
:101DE00092E09093B0009093B10084E68093B300AA
:101DF000E2EBF0E01082E08190937000789482E052
:101E000080939A01109266028091990160E00E948D
:101E1000AB1181E0F80180831F910F9108950F931A
:101E20001F93DF93CF93CDB7DEB768970FB6F894C3
:101E3000DEBF0FBECDBF8C01FC018081882319F469
:101E4000C8010E94EC0EC801BE01655F7F4F0E9471
:101E5000D10D892B19F420E030E0D6C08B859C850C
:101E6000039709F0ACC06F85788989899A898E01BA
:101E70000F5F1F4FA80120E130E00E94B801C801A8
:101E800060E071E00E94AF01009709F49BC0C801B7
:101E900062E071E00E94AF01009709F493C0C801AD
:101EA00066E071E00E94AF01009709F48EC0C8019E
:101EB00068E071E00E94AF01009709F486C0C80194
:101EC0006CE071E00E94AF01009709F481C0C80185
:101ED0006EE071E00E94AF01009709F479C0C8017B
:101EE00062E171E00E94AF01009709F474C0C8017B
:101EF00064E171E00E94AF01009709F46CC08E01AB
:101F00000F5F1F4FC80168E171E00E94AF010097A9
:101F100009F464C0C8016AE171E00E94AF01009752
:101F200009F45CC0C8016EE171E00E94AF01009746
:101F300009F457C0C80160E271E00E94AF01009748
:101F400009F44FC0C80164E271E00E94AF0100973C
:101F500009F44AC0C80166E271E00E94AF0100972F
:101F600009F442C0C8016AE271E00E94AF01009723
:101F7000F1F1C8016CE271E00E94AF010097B9F184
:101F8000C80160E371E00E94AF01009799F1C801B8
:101F900062E371E00E94AF01009761F18E010F5F73
:101FA0001F4FC80166E371E00E94AF01009729F15D
:101FB000C80168E371E00E94AF010097F1F020E0F2
:101FC00030E01DC02AE030E01AC021E030E017C048
:101FD00022E030E014C023E030E011C024E030E023
:101FE0000EC025E030E00BC026E030E008C027E05E
:101FF00030E005C028E030E002C029E030E082E0B7
:1020000080939A0110926602C90168960FB6F894FF
:10201000DEBF0FBECDBFCF91DF911F910F9108950D
:102020001F920F920FB60F9211242F933F938F930D
:102030009F93AF93BF9380916B0290916C02A0919C
:102040006D02B0916E0230916F020196A11DB11D1B
:10205000232F2D5F2D3720F02D570196A11DB11D87
:1020600020936F0280936B0290936C02A0936D0299
:10207000B0936E028091670290916802A09169020C
:10208000B0916A020196A11DB11D809367029093E1
:102090006802A0936902B0936A02BF91AF919F91C9
:1020A0008F913F912F910F900FBE0F901F90189519
:1020B0008FB7F89420916B0230916C0240916D02C1
:1020C00050916E028FBFB901CA0108959FB7F8946D
:1020D00020916702309168024091690250916A0232
:1020E00086B5A89B06C08F3F21F02F5F3F4F4F4F13
:1020F0005F4F9FBF542F432F322F2227280F311DB0
:10210000411D511D82E0220F331F441F551F8A9528
:10211000D1F7B901CA0108959B01AC017FB7F894CA
:102120008091670290916802A0916902B0916A0261
:1021300066B5A89B05C06F3F19F00196A11DB11DA2
:102140007FBFBA2FA92F982F8827860F911DA11D19
:10215000B11D62E0880F991FAA1FBB1F6A95D1F7B6
:10216000BC012DC0FFB7F89480916702909168027E
:10217000A0916902B0916A02E6B5A89B05C0EF3F45
:1021800019F00196A11DB11DFFBFBA2FA92F982FDD
:1021900088278E0F911DA11DB11DE2E0880F991FA8
:1021A000AA1FBB1FEA95D1F7861B970B885E934049
:1021B000C8F2215030404040504068517C4F2115BA
:1021C00031054105510571F60895789484B5826012
:1021D00084BD84B5816084BD85B5826085BD85B5CB
:1021E000816085BDEEE6F0E0808181608083E1E87A
:1021F000F0E01082808182608083808181608083B2
:10220000E0E8F0E0808181608083E1EBF0E08081B4
:1022100084608083E0EBF0E0808181608083E1E98D
:10222000F0E0808182608083808181608083E0E94A
:10223000F0E0808181608083EAE7F0E08081846063
:1022400080838081826080838081816080838081BF
:10225000806880831092C10008951F93CF93DF930D
:10226000182FEB0161E00E94AB11209709F468C0C0
:10227000CF3FD10509F467C0E12FF0E0EA51FF4FED
:102280008491843061F1853040F48230C9F083302C
:10229000E0F4813009F051C00EC0873091F18830F0
:1022A00020F4863009F049C024C0883091F189308B
:1022B00009F043C038C084B5806884BDC7BD47C03D
:1022C00084B5806284BDC8BD42C0809180008068B2
:1022D00080938000D0938900C093880038C080919B
:1022E0008000806280938000D0938B00C0938A002E
:1022F0002EC08091B00080688093B000C093B3007E
:1023000026C08091B00080628093B000C093B4007A
:102310001EC080919000806880939000D0939900B7
:10232000C093980014C080919000806280939000C8
:10233000D0939B00C0939A000AC0C038D1051CF40A
:10234000812F60E002C0812F61E00E942812DF919E
:10235000CF911F910895CF93DF93482F50E0CA018A
:1023600088539F4FFC01349146555F4FFA01849189
:10237000882369F190E0880F991FFC01E457FF4F13
:10238000A591B491FC01EA56FF4FC591D491662303
:1023900051F42FB7F8948C91932F909589238C93B7
:1023A000888189230BC0623061F42FB7F8948C9137
:1023B000932F909589238C938881832B88832FBFBB
:1023C00006C09FB7F8948C91832B8C939FBFDF91AD
:1023D000CF9108958430C9F0853038F48230F1F01F
:1023E000833078F4813099F516C08730F9F0883061
:1023F00018F4863061F516C08830F1F0893039F56F
:1024000021C0809180008F7703C0809180008F7DF4
:1024100080938000089584B58F7702C084B58F7D46
:1024200084BD08958091B0008F7703C08091B00083
:102430008F7D8093B0000895809190008F77809376
:1024400090000895809190008F7D80939000089572
:10245000FF920F931F93F62E482F50E0CA018A5126
:102460009F4FFC012491CA0188539F4FFC01149196
:1024700046555F4FFA0104910023C9F0222319F059
:10248000822F0E94EA11E02FF0E0EE0FFF1FEA56C4
:10249000FF4FA591B4919FB7F894FF2021F48C9140
:1024A0001095812302C08C91812B8C939FBF1F912B
:1024B0000F91FF9008950F931F93482F50E0CA018A
:1024C0008A519F4FFC012491CA0188539F4FFC0100
:1024D000049146555F4FFA011491112319F420E03D
:1024E00030E015C0222319F0822F0E94EA11812FBB
:1024F00090E0880F991F80569F4FFC01A591B491E1
:102500008C9120E030E0802311F021E030E0C9011F
:102510001F910F910895CF93DF930E94E5100E94C1
:10252000F502C0E0D0E00E9460022097E1F30E9433
:102530000000F9CF2F923F924F925F926F927F925D
:102540008F929F92AF92BF92CF92DF92EF92FF92C3
:102550000F931F93DF93CF9300D000D00F92CDB78E
:10256000DEB789837B836A8319012A010E94581090
:102570003B014C018A819B819C0140E050E060E27C
:1025800071EA87E090E00E94B1151D821C8259011A
:10259000CC24DD241DC00E9466107B018C010E94AA
:1025A00066106E197F09800B910B6A157B058C05EF
:1025B0009D05A8F3EC81FD81E095F095FD83EC830A
:1025C0008A819B81892B21F089816C810E9428124C
:1025D0000E945810661977098809990962157305D0
:1025E00084059505C0F2898160E00E9428120F9051
:1025F0000F900F900F900F90CF91DF911F910F913F
:10260000FF90EF90DF90CF90BF90AF909F908F9012
:102610007F906F905F904F903F902F9008952F92F2
:102620003F924F925F926F927F928F929F92AF9262
:10263000BF92CF92DF92EF92FF920F931F93DF939F
:10264000CF93CDB7DEB73B014C0119012A016D894B
:102650007E898F89988D6A197B098C099D09621A78
:10266000730A840A950AA40193010E947315E21863
:10267000F30804091509A80197010E94B1152A0D54
:102680003B1D4C1D5D1DB901CA01CF91DF911F910A
:102690000F91FF90EF90DF90CF90BF90AF909F9001
:1026A0008F907F906F905F904F903F902F90089504
:1026B0005058BB27AA270ED075C166D130F06BD118
:1026C00020F031F49F3F11F41EF45BC10EF4E0954D
:1026D000E7FB51C1E92F77D180F3BA17620773077F
:1026E0008407950718F071F49EF58FC10EF4E095FC
:1026F0000B2EBA2FA02D0B01B90190010C01CA01BC
:10270000A0011124FF27591B99F0593F50F4503E66
:1027100068F11A16F040A22F232F342F4427585F58
:10272000F3CF469537952795A795F0405395C9F770
:102730007EF41F16BA0B620B730B840BBAF0915028
:10274000A1F0FF0FBB1F661F771F881FC2F70EC0C7
:10275000BA0F621F731F841F48F48795779567959A
:10276000B795F7959E3F08F0B3CF9395880F08F083
:102770009927EE0F979587950895D9D008F481E0B1
:1027800008950CD00FC107D140F0FED030F021F4F5
:102790005F3F19F0F0C0511139C1F3C014D198F363
:1027A0009923C9F35523B1F3951B550BBB27AA27D2
:1027B00062177307840738F09F5F5F4F220F331F44
:1027C000441FAA1FA9F333D00E2E3AF0E0E830D010
:1027D00091505040E695001CCAF729D0FE2F27D013
:1027E000660F771F881FBB1F261737074807AB07E1
:1027F000B0E809F0BB0B802DBF01FF2793585F4F56
:102800002AF09E3F510568F0B6C000C15F3FECF36F
:10281000983EDCF3869577956795B795F7959F5F1A
:10282000C9F7880F911D9695879597F90895E1E06E
:10283000660F771F881FBB1F621773078407BA07CD
:1028400020F0621B730B840BBA0BEE1F88F7E09528
:10285000089504D06894B111D9C00895BCD088F00F
:102860009F5790F0B92F9927B751A0F0D1F0660F7C
:10287000771F881F991F1AF0BA95C9F712C0B13097
:1028800081F0C3D0B1E00895C0C0672F782F8827AA
:10289000B85F39F0B93FCCF3869577956795B395D6
:1028A000D9F73EF490958095709561957F4F8F4F45
:1028B0009F4F0895E89409C097FB3EF4909580954A
:1028C000709561957F4F8F4F9F4F9923A9F0F92FF6
:1028D00096E9BB279395F695879577956795B79574
:1028E000F111F8CFFAF4BB0F11F460FF1BC06F5F5A
:1028F0007F4F8F4F9F4F16C0882311F096E911C06C
:10290000772321F09EE8872F762F05C0662371F08C
:1029100096E8862F70E060E02AF09A95660F771FA0
:10292000881FDAF7880F9695879597F90895990F7C
:102930000008550FAA0BE0E8FEEF16161706E80789
:10294000F907C0F012161306E407F50798F0621BAA
:10295000730B840B950B39F40A2661F0232B242B7F
:10296000252B21F408950A2609F4A140A6958FEF9E
:10297000811D811D089597F99F6780E870E060E0F0
:1029800008959FEF80EC089500240A941616170608
:1029900018060906089500240A9412161306140650
:1029A00005060895092E0394000C11F4882352F0B3
:1029B000BB0F40F4BF2B11F460FF04C06F5F7F4F6B
:1029C0008F4F9F4F089557FD9058440F551F59F052
:1029D0005F3F71F04795880F97FB991F61F09F3F0C
:1029E00079F087950895121613061406551FF2CF35
:1029F0004695F1DF08C0161617061806991FF1CF85
:102A000086957105610508940895E894BB276627AB
:102A10007727CB0197F908958ADF08F48FEF08959F
:102A20000BD0C0CFB1DF28F0B6DF18F0952309F046
:102A3000A2CFA7CF1124EACFC6DFA0F3959FD1F391
:102A4000950F50E0551F629FF001729FBB27F00D5C
:102A5000B11D639FAA27F00DB11DAA1F649F6627B1
:102A6000B00DA11D661F829F2227B00DA11D621F00
:102A7000739FB00DA11D621F839FA00D611D221FBA
:102A8000749F3327A00D611D231F849F600D211D9E
:102A9000822F762F6A2F11249F5750408AF0E1F041
:102AA00088234AF0EE0FFF1FBB1F661F771F881F8A
:102AB00091505040A9F79E3F510570F05CCFA6CFD2
:102AC0005F3FECF3983EDCF3869577956795B79575
:102AD000F795E7959F5FC1F7FE2B880F911D96959F
:102AE000879597F90895629FD001739FF001829FA7
:102AF000E00DF11D649FE00DF11D929FF00D839F8D
:102B0000F00D749FF00D659FF00D9927729FB00D29
:102B1000E11DF91F639FB00DE11DF91FBD01CF013C
:102B200011240895991B79E004C0991F961708F0A5
:102B3000961B881F7A95C9F78095089597FB092EF3
:102B400007260AD077FD04D027D006D000201AF43B
:102B5000709561957F4F0895F6F7909581959F4FF9
:102B6000089597FB092E05260ED057FD04D028D0D6
:102B70000AD0001C38F450954095309521953F4F70
:102B80004F4F5F4F0895F6F790958095709561953A
:102B90007F4F8F4F9F4F0895AA1BBB1B51E107C06A
:102BA000AA1FBB1FA617B70710F0A61BB70B881FDD
:102BB000991F5A95A9F780959095BC01CD0108956C
:102BC000A1E21A2EAA1BBB1BFD010DC0AA1FBB1F31
:102BD000EE1FFF1FA217B307E407F50720F0A21BA3
:102BE000B30BE40BF50B661F771F881F991F1A9410
:102BF00069F760957095809590959B01AC01BD013A
:102C0000CF010895EE0FFF1F0590F491E02D099478
:042C1000F894FFCF66
:102C14003000383030003100383031003200383084
:102C2400320033003830330034003830340035009B
:102C34003830350036003830360037003830370049
:0C2C4400380038303800390038303900D2
:00000001FF
