:10E000000C943E700C945B700C945B700C945B7081
:10E010000C945B700C945B700C945B700C945B7054
:10E020000C945B700C945B700C945B700C945B7044
:10E030000C945B700C945B700C945B700C945B7034
:10E040000C945B700C945B700C945B700C945B7024
:10E050000C945B700C945B700C945B700C945B7014
:10E060000C945B700C945B700C945B700C945B7004
:10E070000C945B700C945B700C945B7011241FBE4D
:10E08000CFEFD0E1DEBFCDBF12E0A0E0B1E0E0E72E
:10E09000F6EF02C005900D92AE34B107D9F713E048
:10E0A000AEE4B2E001C01D92A735B107E1F70E94CE
:10E0B0007C730C94367B0C940070E0E0F0E0E4910B
:10E0C000EF3F09F45BC011B812B814B815B817B80F
:10E0D00018B814B815B81AB81BB88AB1806F8AB9C5
:10E0E0008BB18F708BB987B1806C87B988B18F7312
:10E0F00088B9219A209A88EE93E02CEC31E0F9015E
:10E100003197F1F70197D9F7299A8AEF90E02CEC33
:10E1100031E0F9013197F1F70197D9F7299888EEA5
:10E1200093E02CEC31E0F9013197F1F70197D9F741
:10E13000299A8AEF90E02CEC31E0F9013197F1F760
:10E140000197D9F7299888EE93E02CEC31E0F9019A
:10E150003197F1F70197D9F7299A8AEF90E02CECE3
:10E1600031E0F9013197F1F70197D9F7299829980A
:10E170002898E0915503F091560309950895289A3F
:10E1800006C01A9904C088E080936000FFCF809198
:10E19000C00087FFF6CF28988091C6000895982F79
:10E1A00010C0289A06C01A9904C088E080936000C5
:10E1B000FFCF8091C00087FFF6CF28988091C600DE
:10E1C0009150992371F70895289A06C01A9904C0AE
:10E1D00088E080936000FFCF8091C00087FFF6CF7A
:10E1E00028989091C600292F8091C00085FFFCCF10
:10E1F0009093C60091361CF0292F275504C0903308
:10E2000014F0292F2053822F08951F930E94E47049
:10E21000182F0E94E4701295107F810F1F910895AE
:10E2200080917A008F7B80937A0080E680937C00D7
:10E2300080917C0080937C0080917A008064809340
:10E240007A0080917A0086FDFCCF8091790060E0B1
:10E2500070E090E020E680917A008F7B80937A00D6
:10E2600020937C0080917C0080937C0080917A00D8
:10E27000806480937A0080917A0086FDFCCF809143
:10E280007900680F711D9F5F953029F780E090E05D
:10E290000E947F7820E030E040EA50E40E947F77DF
:10E2A0000E942B78CB0108952F923F924F925F925C
:10E2B0006F927F928F929F92AF92BF92CF92DF9296
:10E2C000EF92FF920F931F93DF93CF93CDB7DEB7FB
:10E2D000E6970FB6F894DEBF0FBECDBFE1E0F1E0E8
:10E2E0009DE48091C00085FFFCCF9093C600919182
:10E2F0009923B9F75AE0352E4DE0242E31E3432E11
:10E3000020E3522E3E010894611C711C95E0A92E59
:10E31000B12CAC0EBD1E86E0882E912C8C0E9D1E5D
:10E320008091C00085FFFCCF3092C6008091C00074
:10E3300085FFFCCF2092C6008091C00085FFFCCFF6
:10E340008AE38093C6008091C00085FFFCCF80E205
:10E350008093C600289A06C01A9904C088E080936A
:10E360006000FFCF8091C00087FFF6CF2898809192
:10E37000C600823661F5E4E3F1E092E48091C000EA
:10E3800085FFFCCF9093C60091919923B9F70E9425
:10E390001071B5014AE050E00E94B27A9D81F4010B
:10E3A00007C08091C00085FFFCCF9093C60091917B
:10E3B0009923B9F78091C00085FFFCCF3092C60049
:10E3C0008091C00085FFFCCF2092C600A9CF823487
:10E3D00009F056C0289A06C01A9904C088E08093B4
:10E3E0006000FFCF8091C00087FFF6CF2898209172
:10E3F000C600289A06C01A9904C088E0809360007D
:10E40000FFCF8091C00087FFF6CF28989091C6007B
:10E41000289A06C01A9904C088E080936000FFCF54
:10E420008091C00087FFF6CF29839A832898809136
:10E43000C6008B831C82C3010E94947A282F80938C
:10E440004401EAE3F1E09AE08091C00085FFFCCF4F
:10E450009093C60091919923B9F7822FB5014AE0B4
:10E4600050E00E94B27A9D81F40107C08091C00003
:10E4700085FFFCCF9093C60091919923B9F750CFB7
:10E480008A3619F40E945D704BCF823709F043C081
:10E49000289A06C01A9904C088E080936000FFCFD4
:10E4A0008091C00087FFF6CF28989091C600809198
:10E4B000C00085FFFCCF9093C6000E940571182F05
:10E4C0000E940571982F8091C00085FFFCCF8DE3DD
:10E4D0008093C600D12ECC24F601E90FF11DE08116
:10E4E0008E2F8F708A301CF0982F995A02C0982F67
:10E4F000905D8091C00085FFFCCFE595E595E595A1
:10E50000E595E05DE093C6008091C00085FFFCCFFB
:10E510009093C60005CF843771F4199B06C02998E3
:10E520008091C00085FFFCCF61C0299A8091C00016
:10E5300085FFFCCF67C08537B1F4289A06C01A99C9
:10E5400004C088E080936000FFCF8091C00087FF07
:10E55000F6CF28989091C6008091C00085FFFCCF2F
:10E560009093C600EACF8737C9F5289A06C01A9952
:10E5700004C088E080936000FFCF8091C00087FFD7
:10E58000F6CF28989091C6008091C00085FFFCCFFF
:10E590009093C6000E940571082F0E940571182FE4
:10E5A000289A06C01A9904C088E080936000FFCFC3
:10E5B0008091C00087FFF6CF28989091C600809187
:10E5C000C00085FFFCCF9093C6000E940571F02E1D
:10E5D000EE24F701E10FF11D8083A2CE883749F4C4
:10E5E000109245018091C00085FFFCCF5092C6007B
:10E5F00097CE883551F481E0809345018091C00029
:10E6000085FFFCCF4092C6008BCE813509F088CEC5
:10E61000E6960FB6F894DEBF0FBECDBFCF91DF9167
:10E620001F910F91FF90EF90DF90CF90BF90AF9030
:10E630009F908F907F906F905F904F903F902F9022
:10E640000895982F289A06C01A9904C088E08093EC
:10E650006000FFCF8091C00087FFF6CF289880919F
:10E66000C6008032A9F48091C00085FFFCCF84E110
:10E670008093C6008091C00085FFFCCF9093C600B8
:10E680008091C00085FFFCCF80E18093C600089593
:10E69000809154038F5F80935403853011F40E945E
:10E6A00054710895289A06C01A9904C088E080938E
:10E6B0006000FFCF8091C00087FFF6CF289880913F
:10E6C000C600803279F48091C00085FFFCCF84E1E0
:10E6D0008093C6008091C00085FFFCCF80E18093CD
:10E6E000C6000895809154038F5F80935403853052
:10E6F00011F40E94547108953F924F925F926F926D
:10E700007F928F929F92AF92BF92CF92DF92EF92C1
:10E71000FF920F931F93CF93DF9394B714BE809112
:10E7200060008861809360001092600093FF02C0D7
:10E730000E945D701AB81BB88AB1806F8AB98BB11C
:10E740008F708BB987B1806C87B988B18F7388B9A6
:10E7500011B881E082B98AB1837F8AB98BB1837F96
:10E760008BB923982B9887B1807C87B988B1807C3E
:10E7700088B9219A2998209A289822982A9A80E67E
:10E7800080937C0080917A00866C80937A0010924E
:10E790007E0080917B00887F80937B001092C50073
:10E7A00089E08093C4001092C00088E18093C1008A
:10E7B00086E08093C2005098589A23E04CEC51E0D8
:10E7C00010C0289A88EE93E0FA013197F1F701978B
:10E7D000D9F7289888EE93E0FA013197F1F701977D
:10E7E000D9F7215070F774E1E72E6EE1462E56E915
:10E7F000352E4AE0D42E30E1F32ECC24C39421E40C
:10E80000B22E96E5A92E82E5982E00E2802E19E41C
:10E81000712EB3E56B2EA0E55A2E289A06C01A99E0
:10E8200004C088E080936000FFCF8091C00087FF24
:10E83000F6CF28988091C600803309F4F1C0813367
:10E8400009F047C0289A06C01A9904C088E080934E
:10E850006000FFCF8091C00087FFF6CF289880919D
:10E86000C600803209F040C38091C00085FFFCCF14
:10E87000E092C6008091C00085FFFCCFB092C60038
:10E880008091C00085FFFCCFA092C6008091C0009F
:10E8900085FFFCCF9092C6008091C00085FFFCCF21
:10E8A0008092C6008091C00085FFFCCF7092C600A8
:10E8B0008091C00085FFFCCF6092C6008091C000AF
:10E8C00085FFFCCF5092C6008091C00085FFFCCF31
:10E8D000DBC2803411F5289A06C01A9904C088E07A
:10E8E00080936000FFCF8091C00087FFF6CF28980B
:10E8F0008091C600863808F493C0289A06C01A99F9
:10E9000004C088E080936000FFCF8091C00087FF43
:10E91000F6CF28988091C60083C0813401F5289AEB
:10E9200006C01A9904C088E080936000FFCF8091F0
:10E93000C00087FFF6CF28988091C600803811F478
:10E9400082E0A8C2813811F481E0A4C2823811F4B7
:10E9500080E1A0C2883909F09CC283E09BC2823466
:10E96000A1F494E10FC0289A06C01A9904C088E067
:10E9700080936000FFCF8091C00087FFF6CF28987A
:10E980008091C600915078F74BC08534A1F495E092
:10E990000FC0289A06C01A9904C088E080936000CE
:10E9A000FFCF8091C00087FFF6CF28988091C600E6
:10E9B000915078F735C0803599F1823589F18135EC
:10E9C00059F40E94527380914501882309F425CFA0
:10E9D00088E080936000FFCF853529F5289A06C02E
:10E9E0001A9904C088E080936000FFCF8091C00036
:10E9F00087FFF6CF28988091C60080934E02289A10
:10EA000006C01A9904C088E080936000FFCF80910F
:10EA1000C00087FFF6CF28988091C60080934F02F0
:10EA20000E945273FACE863509F05CC0289A06C05F
:10EA30001A9904C088E080936000FFCF8091C000E5
:10EA400087FFF6CF28988091C600803311F093E0BD
:10EA500046C0289A06C01A9904C088E080936000D6
:10EA6000FFCF8091C00087FFF6CF28988091C60025
:10EA7000289A06C01A9904C088E080936000FFCFEE
:10EA80008091C00087FFF6CF28989091C600289A01
:10EA900006C01A9904C088E080936000FFCF80917F
:10EAA000C00087FFF6CF28988091C600992311F403
:10EAB0008EE1F0C1913011F486E9ECC18AE0EAC13F
:10EAC000289A06C01A9904C088E080936000FFCF9E
:10EAD0008091C00087FFF6CF28988091C6009150A2
:10EAE00078F7D7C1843609F00AC1289A06C01A9966
:10EAF00004C088E080936000FFCF8091C00087FF52
:10EB0000F6CF28988091C60080935102289A06C0BB
:10EB10001A9904C088E080936000FFCF8091C00004
:10EB200087FFF6CF28984091C6004093500280910D
:10EB300052028E7F80935202289A06C01A9904C00E
:10EB400088E080936000FFCF8091C00087FFF6CF00
:10EB500028988091C600853429F480915202816002
:10EB600080935202609150027091510220E030E097
:10EB700015C0289A06C01A9904C088E080936000E6
:10EB8000FFCF8091C00087FFF6CF28988091C60004
:10EB9000F901ED5AFD4F80832F5F3F4F261737074E
:10EBA00040F3289A06C01A9904C088E08093600058
:10EBB000FFCF8091C00087FFF6CF28988091C600D4
:10EBC000803209F091C18091520280FF27C04091AC
:10EBD0004E0250914F02440F551F50934F024093E5
:10EBE0004E0220E030E010C0F999FECFC901840F39
:10EBF000951F92BD81BDF901ED5AFD4F808180BD09
:10EC0000FA9AF99A2F5F3F4F2617370768F3640F78
:10EC1000751F70934F0260934E0266C080914F0241
:10EC20008823880F880B8C218093530380914E0298
:10EC300090914F02880F991F90934F0280934E023C
:10EC400040FF06C06F5F7F4F709351026093500288
:10EC5000F894F999FECF1127E0914E02F0914F02FE
:10EC6000C3E5D2E08091500290915102103091F4AE
:10EC70000091570001700130D9F303E00093570071
:10EC8000E8950091570001700130D9F301E100933C
:10EC90005700E895099019900091570001700130D4
:10ECA000D9F301E000935700E8951395103898F0D8
:10ECB00011270091570001700130D9F305E000934E
:10ECC0005700E8950091570001700130D9F301E138
:10ECD00000935700E8953296029709F0C7CF10309D
:10ECE00011F00296E5CF11248091C00085FFFCCF82
:10ECF000E092C6008091C00085FFFCCFC5C084377C
:10ED000009F092C0289A06C01A9904C088E080933E
:10ED10006000FFCF8091C00087FFF6CF28988091D8
:10ED2000C60080935102289A06C01A9904C088E050
:10ED300080936000FFCF8091C00087FFF6CF2898B6
:10ED40008091C6008093500220914E0230914F0274
:10ED5000220F331F30934F0220934E02289A06C091
:10ED60001A9904C088E080936000FFCF8091C000B2
:10ED700087FFF6CF28988091C60090915202853483
:10ED800011F4916001C09E7F90935202289A06C0B0
:10ED90001A9904C088E080936000FFCF8091C00082
:10EDA00087FFF6CF28988091C600803209F035CDD4
:10EDB0008091C00085FFFCCFE092C600A091500278
:10EDC000B091510280915202782F7170682F669530
:10EDD0006170F90140E050E019C0772359F0F999CA
:10EDE000FECFF2BDE1BDF89A90B58091C00085FFDD
:10EDF000FCCF07C0662339F494918091C00085FF51
:10EE0000FCCF9093C6004F5F5F4F31964A175B0768
:10EE100020F32A0F3B1F30934F0220934E02809124
:10EE2000C00085FFFCCF30C0853789F5289A06C021
:10EE30001A9904C088E080936000FFCF8091C000E1
:10EE400087FFF6CF28988091C600803209F04CC029
:10EE50008091C00085FFFCCFE092C6008091C00089
:10EE600085FFFCCF4092C6008091C00085FFFCCF9B
:10EE70003092C6008091C00085FFFCCFD092C600C2
:10EE80008091C00085FFFCCFF092C600C6CC8637CB
:10EE900021F480E00E942173C0CC813229F5289AA8
:10EEA00006C01A9904C088E080936000FFCF80916B
:10EEB000C00087FFF6CF28988091C600813209F004
:10EEC000ACCC289A06C01A9904C088E080936000F0
:10EED000FFCF8091C00087FFF6CF28988091C600B1
:10EEE000813209F09ACC08C0809154038F5F8093DF
:10EEF0005403853009F091CC0E9454718ECCA8E166
:10EF0000B0E0E5E8F7E70C94F37A69837A838B83C2
:10EF10009C832D833E834F835887B9E0EB2EF12CE1
:10EF2000EC0EFD1ECE010196B7010E941C7A8E01E7
:10EF30000F5E1F4FCE010596B8010E941C7A2985ED
:10EF4000223008F47EC03989323010F4B8017CC018
:10EF50008A859A8989278A87243011F0223031F4F2
:10EF6000231709F06EC066E471E06EC0343039F4E6
:10EF70001D861E861F86188A1C861B8604C032309A
:10EF800021F484E08987B7015FC02B853C858B899C
:10EF90009C89281B390B3C872B87ED84FE840F85C9
:10EFA0001889AD88BE88CF88D88CEA14FB040C057C
:10EFB0001D0540F4EE0CFF1C001F111F21503040B6
:10EFC0003C872B8720E030E040E050E080E090E09C
:10EFD000A0E0B0E460E070E0EA14FB040C051D055D
:10EFE00040F0282B392B4A2B5B2BEA18FB080C0925
:10EFF0001D09B695A79597958795EE0CFF1C001FE8
:10F00000111F6F5F7F4F6F31710531F7DA01C90151
:10F010008F779070A070B07080349105A105B10514
:10F0200061F427FD0AC0E114F1040105110529F07E
:10F03000205C3F4F4F4F5F4F20782D873E874F8793
:10F04000588BBE01675F7F4FCB010E94477968965E
:10F05000EAE00C940F7BACE0B0E0E1E3F8E70C945D
:10F06000FB7A69837A838B839C83CE010196BE01F0
:10F070006B5F7F4F0E941C7A8D81823061F18230FC
:10F0800050F1843021F48E81882351F12EC02F81DC
:10F09000388537FD20C06E812F3131051CF0662385
:10F0A000F9F023C08EE190E0821B930B29853A850D
:10F0B0004B855C8504C056954795379527958A956D
:10F0C000D2F76623B1F050954095309521953F4F8A
:10F0D0004F4F5F4F0EC020E030E040E050E009C0ED
:10F0E0002FEF3FEF4FEF5FE704C020E030E040E05C
:10F0F00050E8B901CA012C96E2E00C94177BA8E015
:10F10000B0E0E5E8F8E70C94F37A7B018C01611537
:10F1100071058105910519F482E0898360C083E05F
:10F1200089838EE1C82ED12CDC82CB82ED82FE82D7
:10F130000F831887C801B7010E94F878FC01319746
:10F14000F7FF3BC0222733272E1B3F0B57016801D7
:10F15000022E04C0D694C794B794A7940A94D2F709
:10F1600040E050E060E070E081E090E0A0E0B0E0DE
:10F1700004C0880F991FAA1FBB1F2A95D2F70197B9
:10F18000A109B1098E219F21A023B1230097A105D8
:10F19000B10521F041E050E060E070E04A295B29D0
:10F1A0006C297D294D835E836F8378878EE190E0A3
:10F1B0008E1B9F0B9C838B8312C0309781F00E2E89
:10F1C00004C0EE0CFF1C001F111F0A94D2F7ED8241
:10F1D000FE820F831887CE1ADF0ADC82CB821A8266
:10F1E000CE0101960E9447792896EAE00C940F7BA5
:10F1F000EF92FF920F931F937B018C0180E0E81642
:10F2000080E0F80681E0080780E0180788F48FEFB7
:10F21000E816F1040105110531F028F088E090E0CE
:10F22000A0E0B0E017C080E090E0A0E0B0E012C045
:10F2300080E0E81680E0F80680E0080781E0180723
:10F2400028F088E190E0A0E0B0E004C080E190E028
:10F25000A0E0B0E020E230E040E050E0281B390BB5
:10F260004A0B5B0B04C016950795F794E7948A95B3
:10F27000D2F7F701E25BFE4F8081281B310941097B
:10F280005109C9011F910F91FF90EF900895DF92EE
:10F29000EF92FF920F931F93FC01E480F5800681AB
:10F2A0001781D1808081823048F480E090E0A0E135
:10F2B000B0E0E82AF92A0A2B1B2BA5C0843009F4F8
:10F2C0009FC0823021F4EE24FF24870105C0E114A1
:10F2D000F1040105110519F4E0E0F0E096C0628147
:10F2E00073819FEF623879070CF05BC022E83FEF33
:10F2F000261B370B2A3131052CF020E030E040E0AE
:10F3000050E02AC0B801A701022E04C07695679587
:10F31000579547950A94D2F781E090E0A0E0B0E0DD
:10F3200004C0880F991FAA1FBB1F2A95D2F7019707
:10F33000A109B1098E219F21A023B1230097A10526
:10F34000B10521F081E090E0A0E0B0E09A01AB01CE
:10F35000282B392B4A2B5B2BDA01C9018F77907050
:10F36000A070B07080349105A105B10539F427FF74
:10F3700009C0205C3F4F4F4F5F4F04C0215C3F4F9F
:10F380004F4F5F4FE0E0F0E02030A0E03A07A0E010
:10F390004A07A0E45A0710F0E1E0F0E079018A01A1
:10F3A00027C06038710564F5FB01E158FF4FD801B3
:10F3B000C7018F779070A070B07080349105A1055F
:10F3C000B10539F4E7FE0DC080E490E0A0E0B0E0C4
:10F3D00004C08FE390E0A0E0B0E0E80EF91E0A1F41
:10F3E0001B1F17FF05C016950795F794E7943196F4
:10F3F00087E016950795F794E7948A95D1F705C0AD
:10F40000EE24FF248701EFEFF0E06E2F679566276B
:10F410006795902F9F77D794DD24D7948E2F86956C
:10F42000492F462B582F5D29B701CA011F910F9113
:10F43000FF90EF90DF900895FC01DB014081518146
:10F440002281622F6F7770E0221F2227221F938173
:10F45000892F880F822B282F30E0991F9927991F19
:10F4600011969C93119721153105A9F54115510568
:10F470006105710511F482E037C082E89FEF1396B1
:10F480009C938E9312979A01AB0167E0220F331F72
:10F49000441F551F6A95D1F783E08C930DC0220F4E
:10F4A000331F441F551F12968D919C9113970197FE
:10F4B00013969C938E931297203080E0380780E05B
:10F4C000480780E4580758F314962D933D934D93C5
:10F4D0005C93179708952F3F310579F44115510535
:10F4E0006105710519F484E08C93089564FF03C0ED
:10F4F00081E08C9312C01C9210C02F57304013969D
:10F500003C932E93129783E08C9387E0440F551F12
:10F51000661F771F8A95D1F7706414964D935D939B
:10F520006D937C9317970895FC0188279927E89499
:10F5300021912032E9F3293010F02E30C8F32B321C
:10F5400041F02D3239F4689404C00E94D37A820FBE
:10F55000911D219120532A30C0F31EF4909581957E
:10F560009F4F0895FB019F01E8944230C4F045325B
:10F57000B4F44A3029F497FB1EF4909581959F4F7F
:10F58000642F77270E94227B805D8A330CF0895D8F
:10F590008193CB010097A1F716F45DE2519310829D
:10F5A000C9010C94DB7A7AE0979F902D879F802D7C
:10F5B000910D11240895DC01FC01672F71917723CF
:10F5C000E1F7329704C07C916D9370836291AE171E
:10F5D000BF07C8F308952F923F924F925F926F92A8
:10F5E0007F928F929F92AF92BF92CF92DF92EF92D3
:10F5F000FF920F931F93CF93DF93CDB7DEB7CA1B54
:10F60000DB0B0FB6F894DEBF0FBECDBF09942A887E
:10F61000398848885F846E847D848C849B84AA8426
:10F62000B984C884DF80EE80FD800C811B81AA81B3
:10F63000B981CE0FD11D0FB6F894DEBF0FBECDBF7E
:10F64000ED010895AA1BBB1B51E107C0AA1FBB1FF8
:10F65000A617B70710F0A61BB70B881F991F5A955E
:10F66000A9F780959095BC01CD010895F894FFCF3E
:10F670004D756C7469706C6F2E53657269616C495D
:10F680006E7465727072657465722076312E3020EA
:10F6900028632932303130204D756C7469706C6F7D
:10F6A0000A0D00426174743A000A0D626174744D6F
:10F6B000696E3D00800100000000000000000001B4
:10F6C0000202030303030404040404040404050500
:10F6D00005050505050505050505050505050606D8
:10F6E00006060606060606060606060606060606BA
:10F6F00006060606060606060606060606060707A8
:10F700000707070707070707070707070707070789
:10F710000707070707070707070707070707070779
:10F720000707070707070707070707070707070769
:10F730000707070707070707070707070707080857
:10F740000808080808080808080808080808080839
:10F750000808080808080808080808080808080829
:10F760000808080808080808080808080808080819
:10F770000808080808080808080808080808080809
:10F7800008080808080808080808080808080808F9
:10F7900008080808080808080808080808080808E9
:10F7A00008080808080808080808080808080808D9
:0EF7B0000808080808080808080808080808DB
:040000030000E00019
:00000001FF
