:1070000055C000006EC000006CC000006AC00000E7
:1070100068C0000066C0000064C0000062C00000DC
:1070200060C000005EC0000079C200005AC00000CD
:1070300058C0000056C0000054C0000052C00000FC
:1070400050C0000094C000004CC000004AC00000C6
:1070500048C0000046C0000044C0000042C000001C
:1070600040C000003EC000003CC000003AC000002C
:1070700038C0000036C0000034C0000032C000003C
:1070800030C000002EC000002CC000002AC000004C
:1070900028C0000026C0000024C0000022C000005C
:1070A00020C000001EC000001CC0000011241FBE34
:1070B000CFEFDAE0DEBFCDBF11E0A0E0B1E0E2EC5F
:1070C000F9E702C005900D92AA34B107D9F711E093
:1070D000AAE4B1E001C01D92A436B107E1F738D1AE
:1070E0006EC48ECF1EBA1ABC81E085BF15BEE0E02B
:1070F000F0E00995209A279A509A519A549A579AF3
:107100003E9A809A219A229A239A28982F985898E2
:1071100059985C985F984698889829982A982B984F
:10712000E1E8F0E01082A0E8B0E01C92808181608C
:10713000808380818D7F808380818B7F80838C9111
:107140008E7F8C938C918D7F8C93808188608083DF
:1071500080818F7E80838FEF9FE79093890080935B
:107160008800EFE6F0E080818260808308951F92BE
:107170000F920FB60F9211242F938F939F93EF933B
:10718000FF9380914A018823E1F080914B01909117
:107190004C01019690934C0180934B0101974997C4
:1071A00081F490915901E8E5F1E080818183319784
:1071B00081E0E135F807C9F7918310924C011092F4
:1071C0004B0128982F98589859985C985F98469842
:1071D000889880914D0190E001968770907080931F
:1071E0004D01E9E5F1E0E81BF90BE081E7FD889A44
:1071F000E6FD469AE5FD5F9AE4FD5C9AE3FD599A47
:10720000E2FD589AE1FD2F9AE0FD289A80FF02C026
:10721000299A01C0299881FF02C02A9A01C02A98A0
:1072200082FF02C02B9A01C02B98FF91EF919F9192
:107230008F912F910F900FBE0F901F9018951F9355
:1072400080915C018F77813209F062C080915D018D
:10725000893009F05DC08091E800877F8093E80065
:107260008091E80082FFFCCF8091F1009091F100C5
:10727000AC018FEF4F3F580719F41092000142C044
:1072800081E080934A0183E0FA0180935700E895FA
:1072900007B600FCFDCFA0E0B0E011E02091F300C4
:1072A0008091F200322F20E090E0822B932B892BEB
:1072B00049F48091E8008B778093E8008091E800A2
:1072C00082FFFCCF8091F100682F8091F100782F30
:1072D000FD01EE0FFF1FE40FF51F0B011093570088
:1072E000E89511241196A034B105C1F685E0FA01A4
:1072F00080935700E89507B600FCFDCF81E18093AD
:107300005700E8958091E8008B778093E80078D06B
:107310001F91089581E061EC42E35FC084B7877FED
:1073200084BF88E10FB6F8948093600010926000EB
:107330000FBE8EB38C3D31F48AB5863A19F4E0E085
:10734000F0E0099581E085BF82E085BFD3DECEC045
:10735000E5DF219A6A9A729A78941092520188E134
:107360008093530180935401809355019EE790933D
:1073700056019CE390935701809358011092590154
:1073800005C0629902C01092000107D380910001EC
:107390008823B9F710924A0152D0A4DEFFCFFA0138
:1073A000913029F486E191E022E130E012C0923080
:1073B00029F488E291E022E230E00BC0913229F01A
:1073C00081E091E025E130E004C08AE391E029E02A
:1073D00030E091838083C90108958093E900809112
:1073E000EB0081608093EB001092ED006093EC0065
:1073F0004093ED008091EE00881F8827881F089534
:1074000080915C0188238CF403C08EB38823B1F093
:107410008091E80082FFF9CF8091E8008B7780931C
:10742000E80008958EB3882349F08091E80080FF3A
:10743000F9CF8091E8008E778093E800089561D0BD
:1074400068D0E0EEF0E0808181608083A8EDB0E05C
:107450008C918F778C9319BCE7EDF0E080818E7F63
:1074600080838C918F7E8C9310925B010895EF92B4
:10747000FF920F931F9345D04CD008ED10E0F80118
:107480008081982F9F7790838068808380818F7D13
:10749000808319BC1EBA10925A0180EEE82EF12C9E
:1074A000F70180818B7F8083F801808181608083F8
:1074B00080E060E042E091DFE1EEF0E080818E7FED
:1074C0008083E2EEF0E0808181608083808188604B
:1074D0008083F70180818E7F8083F80180818061C5
:1074E00080831F910F91FF90EF900895E7EDF0E0FA
:1074F0008081816080838AE482BF81E080935B0128
:10750000B6CFE8EDF0E080818E7F80831092E200BC
:1075100008951092DA001092E10008951F920F92E0
:107520000FB60F9211242F933F934F935F936F9356
:107530007F938F939F93AF93BF93EF93FF9380912C
:10754000DA0080FF1CC08091D80080FF18C08091B5
:10755000DA008E7F8093DA008091D90080FF0CC022
:1075600080E189BD89B5826089BD09B400FEFDCF87
:1075700081E08EBBADD103C019BC1EBAA9D18091E8
:10758000E10080FF17C08091E20080FF13C080916E
:10759000E2008E7F8093E2008091E2008061809320
:1075A000E2008091D80080628093D80019BC85E009
:1075B0008EBB8ED18091E10084FF2DC08091E200CE
:1075C00084FF29C080E189BD89B5826089BD09B485
:1075D00000FEFDCF8091D8008F7D8093D8008091F0
:1075E000E1008F7E8093E1008091E2008F7E8093A6
:1075F000E2008091E20081608093E20080915A0174
:10760000882331F48091E30087FD02C081E001C04E
:1076100084E08EBB5DD18091E10083FF21C0809129
:10762000E20083FF1DC08091E100877F8093E1002D
:1076300082E08EBB10925A018091E1008E7F809390
:10764000E1008091E2008E7F8093E2008091E20071
:1076500080618093E20080E060E042E0BEDE38D1ED
:10766000FF91EF91BF91AF919F918F917F916F911A
:107670005F914F913F912F910F900FBE0F901F90F0
:1076800018950F931F93DF93CF9300D0CDB7DEB73C
:107690008091F10080935C018091F10080935D0105
:1076A0008091F1009091F100EEE5F1E080935E01B0
:1076B00090935F018091F1009091F10080936001BF
:1076C00093838091F1009091F10080936201958302
:1076D000B6DD8091E80083FFE6C080915C01909167
:1076E0005D01953009F46DC0963040F4913081F120
:1076F000913070F0933009F0D6C02AC0983009F468
:10770000A5C0993009F4B4C0963009F0CCC07EC051
:10771000803809F4C8C0823809F0C5C08091600182
:1077200087708093E9008091EB001092E90020912E
:10773000E800277F2093E80090E025E09695879564
:107740002A95E1F781708093F1001092F10089C0D1
:10775000882319F0823009F0A6C08F71823009F0B9
:10776000A2C080915E01882331F5209160012770CD
:1077700009F499C02093E9008091EB0080FF1BC0C1
:10778000933021F48091EB00806213C08091EB0074
:1077900080618093EB0081E090E002C0880F991F28
:1077A0002A95E2F78093EA001092EA008091EB00BC
:1077B00088608093EB001092E9008091E800877F59
:1077C00053C0882309F06FC010915E011F770FB777
:1077D000F8948091E800877F8093E80011DE809123
:1077E000E80080FFFCCF8091E3008078812B8093BC
:1077F000E3008091E30080688093E300112311F49B
:1078000082E001C083E08EBB0FBF4DC08058823044
:1078100008F049C080915E0190915F016091600124
:10782000AE014F5F5F4FBBDDBC01009709F43BC069
:107830008091E800877F8093E80089819A8149D010
:107840008091E8008B778093E8002DC0803859F54F
:107850008091E800877F8093E80080915A018093AF
:10786000F1008091E8008E778093E800C9DD1BC0AD
:107870008823C9F490915E019230A8F48091E800C9
:10788000877F8093E80090935A01BADD80915A0176
:10789000882331F48091E30087FD02C081E001C0BC
:1078A00084E08EBB37DD8091E80083FF0AC08091C1
:1078B000EB0080628093EB008091E800877F8093EB
:1078C000E8000F900F90CF91DF911F910F910895D5
:1078D00008959C014091620150916301461757073A
:1078E00018F4F90190E044C06115710511F0AB0185
:1078F000F8CF8091E8008E778093E80040E050E078
:10790000F0CF8EB3882309F444C0853009F443C016
:107910008091E80083FF02C081E008958091E80033
:1079200082FD31C08091E80080FF22C08091F30089
:107930009091F200782F60E0292F30E0262B372B32
:1079400007C081918093F100415050402F5F3F4F1D
:107950004115510519F02830310598F390E0283091
:10796000310509F491E08091E8008E778093E8007A
:107970004115510531F6992321F605C08EB38823B0
:1079800041F0853041F08091E80082FFF7CF80E040
:10799000089582E0089583E008951F938EB38823AD
:1079A00061F01091E9001092E9008091E80083FFF6
:1079B00001C067DE17701093E9001F910895F894D5
:0279C000FFCFF7
:1079C2000106DCFF09FBA1010902150025FF75086C
:1079D2009682009102C01201100100000008EB0320
:1079E200672001000000000109022200010100805D
:1079F2003209040000010300000009211101000105
:0A7A02002215000705810340000172
:040000050080014A2C
:00000001FF
